{
  "contractName": "ProofOfExistence",
  "abi": [
    {
      "anonymous": false,
      "inputs": [
        {
          "indexed": true,
          "internalType": "bytes32",
          "name": "hash",
          "type": "bytes32"
        },
        {
          "indexed": false,
          "internalType": "uint256",
          "name": "timestamp",
          "type": "uint256"
        }
      ],
      "name": "DocumentRegistered",
      "type": "event"
    },
    {
      "inputs": [
        {
          "internalType": "bytes32",
          "name": "_hash",
          "type": "bytes32"
        }
      ],
      "name": "registerDocument",
      "outputs": [],
      "stateMutability": "nonpayable",
      "type": "function"
    },
    {
      "inputs": [
        {
          "internalType": "bytes32",
          "name": "_hash",
          "type": "bytes32"
        }
      ],
      "name": "verifyDocument",
      "outputs": [
        {
          "internalType": "uint256",
          "name": "timestamp",
          "type": "uint256"
        }
      ],
      "stateMutability": "view",
      "type": "function"
    }
  ],
  "bytecode": "0x608060405234801561000f575f80fd5b5061033a8061001d5f395ff3fe608060405234801561000f575f80fd5b5060043610610034575f3560e01c80639b13197414610038578063fe35089f14610054575b5f80fd5b610052600480360381019061004d91906101c8565b610084565b005b61006e600480360381019061006991906101c8565b610126565b60405161007b919061020b565b60405180910390f35b5f805f8381526020019081526020015f2054146100d6576040517f08c379a00000000000000000000000000000000000000000000000000000000081526004016100cd9061027e565b60405180910390fd5b425f808381526020019081526020015f2081905550807f55f2e8879ca204f6fe3632cd4cb56db0db3b74d7b5fc265e0c3fe236e8f29eb34260405161011b919061020b565b60405180910390a250565b5f805f808481526020019081526020015f205403610179576040517f08c379a0000000000000000000000000000000000000000000000000000000008152600401610170906102e6565b60405180910390fd5b5f808381526020019081526020015f20549050919050565b5f80fd5b5f819050919050565b6101a781610195565b81146101b1575f80fd5b50565b5f813590506101c28161019e565b92915050565b5f602082840312156101dd576101dc610191565b5b5f6101ea848285016101b4565b91505092915050565b5f819050919050565b610205816101f3565b82525050565b5f60208201905061021e5f8301846101fc565b92915050565b5f82825260208201905092915050565b7f446f63756d656e7420616c726561647920726567697374657265642e000000005f82015250565b5f610268601c83610224565b915061027382610234565b602082019050919050565b5f6020820190508181035f8301526102958161025c565b9050919050565b7f446f63756d656e74206e6f7420726567697374657265642e00000000000000005f82015250565b5f6102d0601883610224565b91506102db8261029c565b602082019050919050565b5f6020820190508181035f8301526102fd816102c4565b905091905056fea26469706673582212209532c694aad80bb9768a85603196f3f191dae9d0c9e2a50182c4325fec8240d764736f6c63430008150033",
  "immutableReferences": {},
  "source": "// SPDX-License-Identifier: MIT\r\npragma solidity ^0.8.0;\r\n\r\ncontract ProofOfExistence {\r\n    // State variable to store a document hash\r\n    mapping(bytes32 => uint256) private docHashes;\r\n\r\n    // Event to emit when a document is registered\r\n    event DocumentRegistered(bytes32 indexed hash, uint256 timestamp);\r\n\r\n    // Function to store the hash of a document\r\n    function registerDocument(bytes32 _hash) public {\r\n        require(docHashes[_hash] == 0, \"Document already registered.\");\r\n        docHashes[_hash] = block.timestamp; // Store the current block's timestamp\r\n        emit DocumentRegistered(_hash, block.timestamp);\r\n    }\r\n\r\n    // Function to retrieve the registration timestamp for a document hash\r\n    function verifyDocument(bytes32 _hash) public view returns (uint256 timestamp) {\r\n        require(docHashes[_hash] != 0, \"Document not registered.\");\r\n        return docHashes[_hash];\r\n    }\r\n}\r\n",
  "sourcePath": "D:\\Users\\abdul\\workspace\\ProofOfExistenceDApp\\contracts\\ProofOfExistence.sol",
  "compiler": {
    "name": "solc",
    "version": "0.8.21+commit.d9974bed.Emscripten.clang"
  },
  "schemaVersion": "3.4.16",
  "updatedAt": "2023-11-07T18:51:24.211Z",
  "devdoc": {
    "kind": "dev",
    "methods": {},
    "version": 1
  },
  "userdoc": {
    "kind": "user",
    "methods": {},
    "version": 1
  }
}